:0206F900C1043A
:1004500090E600E054E74412F090E60174F3F000F7
:10046000000090E60B7403F000000090E61074A00A
:10047000F090E611F000000090E61274EAF000003F
:100480000090E6137462F000000090E61474AAF085
:1004900000000090E6157462F000000090E604741D
:1004A00080F00000007402F00000007404F000000E
:1004B000007406F00000007408F0000000E4F00092
:1004C000000090E618744DF000000090E61A745594
:1004D000F0000000744DF0000000E490E602F0002F
:1004E000000090E603F090E670F000000090E62037
:1004F0007404F0000000E490E621F000000090E6B3
:10050000247404F0000000E490E625F000000022CE
:01093A00229A
:0205FE00D32206
:0206FC00D32207
:0206FE00D32205
:1006B80090E680E030E71690E6207404F000000031
:1006C80090E624F0000000E490E6218014E490E62F
:1006D80020F000000090E624F000000090E621746D
:1006E80040F000000090E625F090E6BAE0F51BD354
:0106F80022DF
:1008EB0090E740E51BF0E490E68AF090E68B04F08D
:0208FB00D32206
:08092A0090E6BAE0F51AD322B1
:1008FD0090E740E51AF0E490E68AF090E68B04F07C
:02090D00D322F3
:02093200D322CE
:02093400D322CC
:02093600D322CA
:02093800C322D8
:1005E200C0E0C083C082D2015391EF90E65D7401F6
:0805F200F0D082D083D0E0328A
:1008BF00C0E0C083C0825391EF90E65D7404F0D026
:0608CF0082D083D0E0326C
:1008D500C0E0C083C0825391EF90E65D7402F0D012
:0608E50082D083D0E03256
:1007C500C0E0C083C082852925852A2685268285A5
:1007D5002583A37402F08521278522288528828513
:1007E5002783A37407F05391EF90E65D7410F0D062
:0607F50082D083D0E03247
:1008A700C0E0C083C082D2035391EF90E65D740825
:0808B700F0D082D083D0E032C2
:10078800C0E0C083C08290E680E030E72085212564
:10079800852226852682852583A37402F08529274C
:1007A800852A28852882852783A37407F05391EF2B
:0D07B80090E65D7420F0D082D083D0E03256
:01093B003289
:01093C003288
:01093D003287
:01093E003286
:01093F003285
:010940003284
:010941003283
:010942003282
:010943003281
:010944003280
:01094500327F
:01094600327E
:01094700327D
:01094800327C
:01094900327B
:01094A00327A
:01094B003279
:01094C003278
:01094D003277
:01094E003276
:01094F003275
:010950003274
:010951003273
:010952003272
:010953003271
:010954003270
:01095500326F
:01095600326E
:01095700326D
:01095800326C
:01095900326B
:01095A00326A
:01095B003269
:01095C003268
:01095D003267
:01095E003266
:0A09200000010202030304040505B0
:1002A400E4F513F512F511F510C203C200C202C23F
:1002B400011204507E077F008E238F24752B07754F
:1002C4002C1275210775221C752907752A3C752D7A
:1002D40007752E5CEE54E070030203EA7514007592
:1002E40015808E168F17C374869FFF74079ECF24C4
:1002F40002CF3400FEE48F0F8E0EF50DF50CF50BD6
:10030400F50AF509F508AF0FAE0EAD0DAC0CAB0B4D
:10031400AA0AA909A808C312090F5026E515250B36
:10032400F582E514350AF58374CDF0E50B2401F567
:100334000BE4350AF50AE43509F509E43508F5084E
:1003440080C4E4F50BF50AF509F508AF0FAE0EAD60
:100354000DAC0CAB0BAA0AA909A808C312090F50CB
:1003640033E517250BF582E516350AF583E0FFE53D
:1003740015250BF582E514350AF583EFF0E50B241A
:1003840001F50BE4350AF50AE43509F509E4350805
:10039400F50880B785142385152474002480FF7420
:1003A4000734FFFEC3E52C9FF52CE52B9EF52BC3EC
:1003B400E5269FF526E5259EF525C3E5289FF52826
:1003C400E5279EF527C3E5229FF522E5219EF52129
:1003D400C3E52A9FF52AE5299EF529C3E52E9FF555
:1003E4002EE52D9EF52DD2E843D82090E668E04412
:1003F40009F090E65CE0443DF0D2AF90E680E02066
:10040400E105D2051207FB90E680E054F7F0538E25
:10041400F8C203300105120080C20130032912051D
:10042400FE5024C20312088220001690E682E030B7
:10043400E704E020E1EF90E682E030E604E020E02B
:0C044400E412082A1206FC12093A80C7D4
:1000800090E6B9E070030201311470030201AE245E
:10009000FE700302023124FB700302012B14700373
:1000A0000201251460731460762405600302029037
:1000B0001206FE400302029C90E6BBE024FE602292
:1000C00014603324FD601114602224067048E52377
:1000D00090E6B3F0E5248037E52B90E6B3F0E52C0D
:1000E000802DE52590E6B3F0E5268023E52790E610
:1000F000B3F0E528801990E6BAE0FF120856AA0688
:10010000A9077B01EA494B600DEE90E6B3F0EF9052
:10011000E6B4F002029C0202951208FD02029C1253
:10012000092A02029C1206B802029C1208EB020283
:100130009C120932400302029C90E6B8E0247F60E2
:100140001514601924027063A200E43325E0FFA2B5
:1001500002E4334F8041E490E740F0803F90E6BCFA
:10016000E0547EFF7E00E0D394807C0040047D015B
:1001700080027D00EC4EFEED4F2420F58274093E96
:10018000F583E493FF3395E0FEEF24A1FFEE34E620
:100190008F82F583E0540190E740F0E4A3F090E60D
:1001A0008AF090E68B7402F002029C02029512091A
:1001B00034400302029C90E6B8E024FE601624025C
:1001C000600302029C90E6BAE0B40105C20002029C
:1001D0009C02029590E6BAE0705590E6BCE0547E31
:1001E000FF7E00E0D394807C0040047D0180027D8E
:1001F00000EC4EFEED4F2420F58274093EF583E4B9
:1002000093FF3395E0FEEF24A1FFEE34E68F82F5F5
:1002100083E054FEF090E6BCE05480131313541FA7
:10022000FFE0540F2F90E683F0E04420F0806D80D3
:1002300064120936506690E6B8E024FE6019240284
:10024000705A90E6BAE0B40104D200804F90E6BA4A
:10025000E064026047803E90E6BCE0547EFF7E0092
:10026000E0D394807C0040047D0180027D00EC4E50
:10027000FEED4F2420F58274093EF583E493FF33AD
:1002800095E0FEEF24A1FFEE34E68F82F58380082F
:10029000120938500790E6A0E04401F090E6A0E093
:0302A0004480F0A7
:0102A3002238
:030033000205FAC9
:0405FA0053D8EF32B1
:10082A0090E682E030E004E020E60B90E682E030D9
:10083A00E119E030E71590E680E04401F07F147E8C
:0C084A000012059C90E680E054FEF022B5
:1008820090E682E044C0F090E681F04387010000E8
:040892000000002240
:1007FB0030050990E680E0440AF0800790E680E03F
:10080B004408F07FDC7E0512059C90E65D74FFF0DA
:0F081B0090E65FF05391EF90E680E054F7F02203
:02085600A907F0
:10085800AE2DAF2E8F828E83A3E064037017AD0197
:1008680019ED7001228F828E83E07C002FFDEC3E13
:09087800FEAF0580DF7E007F0069
:010881002254
:10059C008E188F1990E600E054187012E51924019A
:1005AC00FFE43518C313F518EF13F519801590E611
:1005BC0000E05418FFBF100BE51925E0F519E518FC
:1005CC0033F518E5191519AE18700215184E60059B
:0605DC0012089680EE22D9
:100896007400F58690FDA57C05A3E582458370F975
:0108A600222F
:03004300020600B2
:03005300020600A2
:100600000205E2000208D5000208BF000208A700A8
:100610000207C5000207880002093B0002093C00EE
:1006200002093D0002093E0002093F0002094000A4
:100630000209410002094200020943000209440084
:100640000209450002093C00020946000209470070
:10065000020948000209490002094A0002094B0048
:1006600002094C0002093C0002093C0002093C005E
:1006700002094D0002094E0002094F000209500014
:1006800002095100020952000209530002095400F4
:1006900002095500020956000209570002095800D4
:1006A0000209590002095A0002095B0002095C00B4
:0806B00002095D0002095E0071
:100700001201000200000040470504100000010231
:1007100000010A060002000000400100090220005A
:1007200001010080320904000002FF0000000705FB
:1007300082020004000705060200040009022000EE
:1007400001010080320904000002FF0000000705DB
:10075000820240000007050602400000040309046D
:10076000100343007900700072006500730073008D
:10077000160345005A002D0055005300420020008A
:080780004600580032000000A1
:03000000020510E6
:0C051000787FE4F6D8FD75812E020557B7
:10090F00EB9FF5F0EA9E42F0E99D42F0E89C45F03E
:01091F0022B5
:10051C000202A4E493A3F8E493A34003F68001F24F
:10052C0008DFF48029E493A3F85407240CC8C333E0
:10053C00C4540F4420C8834004F456800146F6DFAF
:10054C00E4800B01020408102040809006F9E47E40
:10055C00019360BCA3FF543F30E509541FFEE493A4
:10056C00A360010ECF54C025E060A840B8E493A36B
:10057C00FAE493A3F8E493A3C8C582C8CAC583CA96
:10058C00F0A3C8C582C8CAC583CADFE9DEE780BE4E
:0106FB0000FE
:00000001FF
